{"abi":[{"type":"constructor","inputs":[{"name":"initial","type":"uint256","internalType":"uint256"}],"stateMutability":"nonpayable"},{"type":"function","name":"count","inputs":[],"outputs":[{"name":"","type":"uint256","internalType":"uint256"}],"stateMutability":"view"},{"type":"function","name":"increment","inputs":[],"outputs":[],"stateMutability":"nonpayable"},{"type":"function","name":"owner","inputs":[],"outputs":[{"name":"","type":"address","internalType":"address"}],"stateMutability":"view"},{"type":"function","name":"reset","inputs":[],"outputs":[],"stateMutability":"nonpayable"},{"type":"event","name":"Incremented","inputs":[{"name":"newValue","type":"uint256","indexed":false,"internalType":"uint256"},{"name":"by","type":"address","indexed":true,"internalType":"address"}],"anonymous":false},{"type":"event","name":"Reset","inputs":[{"name":"oldValue","type":"uint256","indexed":false,"internalType":"uint256"},{"name":"by","type":"address","indexed":true,"internalType":"address"}],"anonymous":false}],"bytecode":{"object":"0x60a060405234801561000f575f80fd5b5060405161027238038061027283398101604081905261002e91610039565b336080525f55610050565b5f60208284031215610049575f80fd5b5051919050565b60805161020461006e5f395f81816068015261010e01526102045ff3fe608060405234801561000f575f80fd5b506004361061004a575f3560e01c806306661abd1461004e5780638da5cb5b14610063578063d09de08a146100a2578063d826f88f146100ac575b5f80fd5b5f546040519081526020015b60405180910390f35b61008a7f000000000000000000000000000000000000000000000000000000000000000081565b6040516001600160a01b03909116815260200161005a565b6100aa6100b4565b005b6100aa610103565b60015f808282546100c591906101a9565b90915550505f5460405190815233907f6312957b833157dbcce860c9538737febb9491fde39563488a9c296f930376ed9060200160405180910390a2565b336001600160a01b037f0000000000000000000000000000000000000000000000000000000000000000161461016b5760405162461bcd60e51b81526020600482015260096024820152683737ba1037bbb732b960b91b604482015260640160405180910390fd5b5f805490805560405181815233907f6cb5042a1eb85d6774bcb8544ad743eaffd492e13601ca85099c6057665463759060200160405180910390a250565b808201808211156101c857634e487b7160e01b5f52601160045260245ffd5b9291505056fea2646970667358221220d5753a5a4d2b886427c596e15503be9732f846219273954d56ac1d25902756a464736f6c63430008180033","linkReferences":{}},"methodIdentifiers":{"count()":"06661abd","increment()":"d09de08a","owner()":"8da5cb5b","reset()":"d826f88f"},"id":25}