{"abi":[{"type":"constructor","inputs":[],"stateMutability":"nonpayable"},{"type":"receive","stateMutability":"payable"},{"type":"function","name":"donate","inputs":[],"outputs":[],"stateMutability":"payable"},{"type":"function","name":"owner","inputs":[],"outputs":[{"name":"","type":"address","internalType":"address"}],"stateMutability":"view"},{"type":"function","name":"pause","inputs":[],"outputs":[],"stateMutability":"nonpayable"},{"type":"function","name":"paused","inputs":[],"outputs":[{"name":"","type":"bool","internalType":"bool"}],"stateMutability":"view"},{"type":"function","name":"sweep","inputs":[],"outputs":[],"stateMutability":"nonpayable"},{"type":"function","name":"unpause","inputs":[],"outputs":[],"stateMutability":"nonpayable"},{"type":"event","name":"Donate","inputs":[{"name":"from","type":"address","indexed":true,"internalType":"address"},{"name":"amount","type":"uint256","indexed":false,"internalType":"uint256"}],"anonymous":false},{"type":"event","name":"Paused","inputs":[{"name":"by","type":"address","indexed":true,"internalType":"address"}],"anonymous":false},{"type":"event","name":"Unpaused","inputs":[{"name":"by","type":"address","indexed":true,"internalType":"address"}],"anonymous":false}],"bytecode":{"object":"0x60a060405234801561000f575f80fd5b50336080525f805460ff1916905560805161049d6100505f395f818160d7015281816101240152818161016d0152818161022901526102e2015261049d5ff3fe608060405260043610610057575f3560e01c806335faa416146100625780633f4ba83a146100785780635c975abb1461008c5780638456cb59146100b25780638da5cb5b146100c6578063ed88c68e14610111575f80fd5b3661005e57005b5f80fd5b34801561006d575f80fd5b50610076610119565b005b348015610083575f80fd5b5061007661021e565b348015610097575f80fd5b505f5460ff1660405190151581526020015b60405180910390f35b3480156100bd575f80fd5b506100766102d7565b3480156100d1575f80fd5b506100f97f000000000000000000000000000000000000000000000000000000000000000081565b6040516001600160a01b0390911681526020016100a9565b610076610398565b336001600160a01b037f0000000000000000000000000000000000000000000000000000000000000000161461016a5760405162461bcd60e51b815260040161016190610444565b60405180910390fd5b5f7f00000000000000000000000000000000000000000000000000000000000000006001600160a01b0316476040515f6040518083038185875af1925050503d805f81146101d3576040519150601f19603f3d011682016040523d82523d5f602084013e6101d8565b606091505b505090508061021b5760405162461bcd60e51b815260206004820152600f60248201526e1d1c985b9cd9995c8819985a5b1959608a1b6044820152606401610161565b50565b336001600160a01b037f000000000000000000000000000000000000000000000000000000000000000016146102665760405162461bcd60e51b815260040161016190610444565b5f5460ff166102a45760405162461bcd60e51b815260206004820152600a6024820152691b9bdd081c185d5cd95960b21b6044820152606401610161565b5f805460ff1916815560405133917f5db9ee0a495bf2e6ff9c91a7834c1ba4fdd244a5e8aa4e537bd38aeae4b073aa91a2565b336001600160a01b037f0000000000000000000000000000000000000000000000000000000000000000161461031f5760405162461bcd60e51b815260040161016190610444565b5f5460ff16156103625760405162461bcd60e51b815260206004820152600e60248201526d185b1c9958591e481c185d5cd95960921b6044820152606401610161565b5f805460ff1916600117815560405133917f62e78cea01bee320cd4e420270b5ea74000d11b0c9f74754ebdbfc544b05a25891a2565b5f5460ff16156103d35760405162461bcd60e51b81526020600482015260066024820152651c185d5cd95960d21b6044820152606401610161565b5f341161040d5760405162461bcd60e51b81526020600482015260086024820152676e6f2076616c756560c01b6044820152606401610161565b60405134815233907f0553260a2e46b0577270d8992db02d30856ca880144c72d6e9503760946aef139060200160405180910390a2565b6020808252600990820152683737ba1037bbb732b960b91b60408201526060019056fea264697066735822122065888822421d310b6579d786189bc5a40e19a2a4d2d5e402c0d0810193e1129a64736f6c63430008180033","linkReferences":{}},"methodIdentifiers":{"donate()":"ed88c68e","owner()":"8da5cb5b","pause()":"8456cb59","paused()":"5c975abb","sweep()":"35faa416","unpause()":"3f4ba83a"},"id":23}