{"abi":[{"type":"constructor","inputs":[],"stateMutability":"nonpayable"},{"type":"function","name":"customers","inputs":[{"name":"","type":"address","internalType":"address"}],"outputs":[{"name":"totalSpent","type":"uint256","internalType":"uint256"},{"name":"isVip","type":"bool","internalType":"bool"}],"stateMutability":"view"},{"type":"function","name":"deposit","inputs":[],"outputs":[],"stateMutability":"payable"},{"type":"function","name":"i_owner","inputs":[],"outputs":[{"name":"","type":"address","internalType":"address"}],"stateMutability":"view"},{"type":"function","name":"isPaused","inputs":[],"outputs":[{"name":"","type":"bool","internalType":"bool"}],"stateMutability":"view"},{"type":"function","name":"togglePause","inputs":[],"outputs":[],"stateMutability":"nonpayable"}],"bytecode":{"object":"0x60a060405234801561000f575f80fd5b50336080526080516102d56100325f395f818160f3015261013801526102d55ff3fe608060405260043610610049575f3560e01c8063336989ae1461004d578063b187bd261461009c578063c4ae3168146100c4578063d0e30db0146100da578063dba6335f146100e2575b5f80fd5b348015610058575f80fd5b5061008261006736600461024d565b600160208190525f9182526040909120805491015460ff1682565b604080519283529015156020830152015b60405180910390f35b3480156100a7575f80fd5b505f546100b49060ff1681565b6040519015158152602001610093565b3480156100cf575f80fd5b506100d861012d565b005b6100d86101aa565b3480156100ed575f80fd5b506101157f000000000000000000000000000000000000000000000000000000000000000081565b6040516001600160a01b039091168152602001610093565b336001600160a01b037f000000000000000000000000000000000000000000000000000000000000000016146101975760405162461bcd60e51b815260206004820152600a6024820152692734b1b43a1021b432b360b11b60448201526064015b60405180910390fd5b5f805460ff19811660ff90911615179055565b5f5460ff16156101ec5760405162461bcd60e51b815260206004820152600d60248201526c14da1bdc081c185d5cda595c9d609a1b604482015260640161018e565b335f908152600160205260408120805434929061020a90849061027a565b9091555050335f90815260016020526040902054670de0b6b3a76400001161024b57335f9081526001602081905260409091208101805460ff191690911790555b565b5f6020828403121561025d575f80fd5b81356001600160a01b0381168114610273575f80fd5b9392505050565b8082018082111561029957634e487b7160e01b5f52601160045260245ffd5b9291505056fea264697066735822122077428568d37dac543e3332aeb1de16a8ea5501f96627a8b0f7d48aa95cd01c2664736f6c63430008180033","linkReferences":{}},"methodIdentifiers":{"customers(address)":"336989ae","deposit()":"d0e30db0","i_owner()":"dba6335f","isPaused()":"b187bd26","togglePause()":"c4ae3168"},"id":0}