{"abi":[{"type":"constructor","inputs":[{"name":"_founder","type":"address","internalType":"address"},{"name":"_verifier","type":"address","internalType":"address"},{"name":"_gp","type":"address","internalType":"address"}],"stateMutability":"nonpayable"},{"type":"function","name":"founder","inputs":[],"outputs":[{"name":"","type":"address","internalType":"address"}],"stateMutability":"view"},{"type":"function","name":"gp","inputs":[],"outputs":[{"name":"","type":"address","internalType":"address"}],"stateMutability":"view"},{"type":"function","name":"release","inputs":[],"outputs":[],"stateMutability":"nonpayable"},{"type":"function","name":"state","inputs":[],"outputs":[{"name":"","type":"uint8","internalType":"enum MilestoneRelease.State"}],"stateMutability":"view"},{"type":"function","name":"submitEvidence","inputs":[],"outputs":[],"stateMutability":"nonpayable"},{"type":"function","name":"verifier","inputs":[],"outputs":[{"name":"","type":"address","internalType":"address"}],"stateMutability":"view"},{"type":"function","name":"verify","inputs":[],"outputs":[],"stateMutability":"nonpayable"},{"type":"event","name":"StateChanged","inputs":[{"name":"from","type":"uint8","indexed":false,"internalType":"enum MilestoneRelease.State"},{"name":"to","type":"uint8","indexed":false,"internalType":"enum MilestoneRelease.State"}],"anonymous":false},{"type":"error","name":"NotAuthorized","inputs":[]},{"type":"error","name":"WrongState","inputs":[]}],"bytecode":{"object":"0x608060405234801561000f575f80fd5b5060405161044538038061044583398101604081905261002e9161009d565b5f8054600180546001600160a01b039586166001600160a01b031991821617909155600280549486169490911693909317909255929091166101000260ff19166001600160a81b03199091161790556100dd565b80516001600160a01b0381168114610098575f80fd5b919050565b5f805f606084860312156100af575f80fd5b6100b884610082565b92506100c660208501610082565b91506100d460408501610082565b90509250925092565b61035b806100ea5f395ff3fe608060405234801561000f575f80fd5b506004361061007a575f3560e01c806386d1a69f1161005857806386d1a69f146100cf578063c19d93fb146100d7578063d46b9330146100f0578063fc735e9914610103575f80fd5b80632b7ac3f31461007e5780634d853ee5146100ae5780637e6d8f02146100c5575b5f80fd5b600154610091906001600160a01b031681565b6040516001600160a01b0390911681526020015b60405180910390f35b5f546100919061010090046001600160a01b031681565b6100cd61010b565b005b6100cd61017f565b5f546100e39060ff1681565b6040516100a591906102ef565b600254610091906001600160a01b031681565b6100cd6101ec565b5f5461010090046001600160a01b031633811461013b5760405163ea8e4eb560e01b815260040160405180910390fd5b5f805f5460ff166003811115610153576101536102bb565b1461017157604051636f20b45d60e11b815260040160405180910390fd5b61017b6001610255565b5050565b6002546001600160a01b03163381146101ab5760405163ea8e4eb560e01b815260040160405180910390fd5b6002805f5460ff1660038111156101c4576101c46102bb565b146101e257604051636f20b45d60e11b815260040160405180910390fd5b61017b6003610255565b6001546001600160a01b03163381146102185760405163ea8e4eb560e01b815260040160405180910390fd5b6001805f5460ff166003811115610231576102316102bb565b1461024f57604051636f20b45d60e11b815260040160405180910390fd5b61017b60025b5f546040517fe8a97ea87e4388fa22d496b95a8ed5ced6717f49790318de2b928aaf37a021d89161028d9160ff909116908490610303565b60405180910390a15f805482919060ff191660018360038111156102b3576102b36102bb565b021790555050565b634e487b7160e01b5f52602160045260245ffd5b600481106102eb57634e487b7160e01b5f52602160045260245ffd5b9052565b602081016102fd82846102cf565b92915050565b6040810161031182856102cf565b61031e60208301846102cf565b939250505056fea2646970667358221220ca62bb33d04a56cd25798d85130b6759c314614de22a78c18ef1fdd4bdc0a0c764736f6c63430008180033","linkReferences":{}},"methodIdentifiers":{"founder()":"4d853ee5","gp()":"d46b9330","release()":"86d1a69f","state()":"c19d93fb","submitEvidence()":"7e6d8f02","verifier()":"2b7ac3f3","verify()":"fc735e99"},"id":25}