{"abi":[{"type":"function","name":"balances","inputs":[{"name":"","type":"address","internalType":"address"}],"outputs":[{"name":"","type":"uint256","internalType":"uint256"}],"stateMutability":"view"},{"type":"function","name":"deposit","inputs":[],"outputs":[],"stateMutability":"payable"},{"type":"function","name":"withdrawAll","inputs":[],"outputs":[],"stateMutability":"nonpayable"}],"bytecode":{"object":"0x608060405234801561000f575f80fd5b506102488061001d5f395ff3fe608060405260043610610033575f3560e01c806327e235e314610037578063853828b614610074578063d0e30db01461008a575b5f80fd5b348015610042575f80fd5b506100626100513660046101c0565b5f6020819052908152604090205481565b60405190815260200160405180910390f35b34801561007f575f80fd5b50610088610092565b005b61008861019b565b335f90815260208190526040902054806100f35760405162461bcd60e51b815260206004820152601760248201527f4b65696e20477574686162656e20766f7268616e64656e00000000000000000060448201526064015b60405180910390fd5b335f818152602081905260408082208290555190919083908381818185875af1925050503d805f8114610141576040519150601f19603f3d011682016040523d82523d5f602084013e610146565b606091505b50509050806101975760405162461bcd60e51b815260206004820152601760248201527f5472616e73666572206665686c67657363686c6167656e00000000000000000060448201526064016100ea565b5050565b335f90815260208190526040812080543492906101b99084906101ed565b9091555050565b5f602082840312156101d0575f80fd5b81356001600160a01b03811681146101e6575f80fd5b9392505050565b8082018082111561020c57634e487b7160e01b5f52601160045260245ffd5b9291505056fea26469706673582212208f4968c1476a4eba8f76dde3cbcc42a14405a2afa63932b9594d2e3f04e1155d64736f6c63430008180033","linkReferences":{}},"methodIdentifiers":{"balances(address)":"27e235e3","deposit()":"d0e30db0","withdrawAll()":"853828b6"},"id":24}