{"abi":[{"type":"constructor","inputs":[],"stateMutability":"nonpayable"},{"type":"function","name":"message","inputs":[],"outputs":[{"name":"","type":"string","internalType":"string"}],"stateMutability":"view"},{"type":"function","name":"owner","inputs":[],"outputs":[{"name":"","type":"address","internalType":"address"}],"stateMutability":"view"},{"type":"function","name":"setMessage","inputs":[{"name":"newMessage","type":"string","internalType":"string"}],"outputs":[],"stateMutability":"nonpayable"},{"type":"event","name":"MessageSet","inputs":[{"name":"newMessage","type":"string","indexed":false,"internalType":"string"},{"name":"by","type":"address","indexed":true,"internalType":"address"}],"anonymous":false},{"type":"error","name":"NotOwner","inputs":[]}],"bytecode":{"object":"0x60a060405234801561000f575f80fd5b50336080526080516104476100315f395f8181605d015260bc01526104475ff3fe608060405234801561000f575f80fd5b506004361061003f575f3560e01c8063368b8772146100435780638da5cb5b14610058578063e21f37ce1461009c575b5f80fd5b6100566100513660046101d9565b6100b1565b005b61007f7f000000000000000000000000000000000000000000000000000000000000000081565b6040516001600160a01b0390911681526020015b60405180910390f35b6100a461014e565b6040516100939190610245565b336001600160a01b037f000000000000000000000000000000000000000000000000000000000000000016146100fa576040516330cd747160e01b815260040160405180910390fd5b5f610106828483610329565b50336001600160a01b03167f209e49e079e80a178a2da3cd923b743aea3dc2cd98d1b27a281ed2d86c44b38783836040516101429291906103e3565b60405180910390a25050565b5f805461015a906102a5565b80601f0160208091040260200160405190810160405280929190818152602001828054610186906102a5565b80156101d15780601f106101a8576101008083540402835291602001916101d1565b820191905f5260205f20905b8154815290600101906020018083116101b457829003601f168201915b505050505081565b5f80602083850312156101ea575f80fd5b823567ffffffffffffffff80821115610201575f80fd5b818501915085601f830112610214575f80fd5b813581811115610222575f80fd5b866020828501011115610233575f80fd5b60209290920196919550909350505050565b5f602080835283518060208501525f5b8181101561027157858101830151858201604001528201610255565b505f604082860101526040601f19601f8301168501019250505092915050565b634e487b7160e01b5f52604160045260245ffd5b600181811c908216806102b957607f821691505b6020821081036102d757634e487b7160e01b5f52602260045260245ffd5b50919050565b601f82111561032457805f5260205f20601f840160051c810160208510156103025750805b601f840160051c820191505b81811015610321575f815560010161030e565b50505b505050565b67ffffffffffffffff83111561034157610341610291565b6103558361034f83546102a5565b836102dd565b5f601f841160018114610386575f851561036f5750838201355b5f19600387901b1c1916600186901b178355610321565b5f83815260208120601f198716915b828110156103b55786850135825560209485019460019092019101610395565b50868210156103d1575f1960f88860031b161c19848701351681555b505060018560011b0183555050505050565b60208152816020820152818360408301375f818301604090810191909152601f909201601f1916010191905056fea2646970667358221220d8fa17576e4e8b4dc0e7c914f390cc63c5719754d6b9a74035af42c392b3648664736f6c63430008180033","linkReferences":{}},"methodIdentifiers":{"message()":"e21f37ce","owner()":"8da5cb5b","setMessage(string)":"368b8772"},"id":24}