{"abi":[{"type":"constructor","inputs":[],"stateMutability":"nonpayable"},{"type":"function","name":"lock","inputs":[],"outputs":[],"stateMutability":"nonpayable"},{"type":"function","name":"locked","inputs":[],"outputs":[{"name":"","type":"bool","internalType":"bool"}],"stateMutability":"view"},{"type":"function","name":"owner","inputs":[],"outputs":[{"name":"","type":"address","internalType":"address"}],"stateMutability":"view"},{"type":"function","name":"unlock","inputs":[],"outputs":[],"stateMutability":"nonpayable"},{"type":"event","name":"Locked","inputs":[{"name":"by","type":"address","indexed":true,"internalType":"address"}],"anonymous":false},{"type":"event","name":"Unlocked","inputs":[{"name":"by","type":"address","indexed":true,"internalType":"address"}],"anonymous":false},{"type":"error","name":"NotOwner","inputs":[]}],"bytecode":{"object":"0x60a060405234801561000f575f80fd5b50336080525f805460ff191690556080516101f16100415f395f818160530152818160cb015261014701526101f15ff3fe608060405234801561000f575f80fd5b506004361061004a575f3560e01c80638da5cb5b1461004e578063a69df4b514610092578063cf3090121461009c578063f83d08ba146100b8575b5f80fd5b6100757f000000000000000000000000000000000000000000000000000000000000000081565b6040516001600160a01b0390911681526020015b60405180910390f35b61009a6100c0565b005b5f546100a89060ff1681565b6040519015158152602001610089565b61009a61013c565b336001600160a01b037f00000000000000000000000000000000000000000000000000000000000000001614610109576040516330cd747160e01b815260040160405180910390fd5b5f805460ff1916815560405133917f7e6adfec7e3f286831a0200a754127c171a2da564078722cb97704741bbdb0ea91a2565b336001600160a01b037f00000000000000000000000000000000000000000000000000000000000000001614610185576040516330cd747160e01b815260040160405180910390fd5b5f805460ff1916600117815560405133917f44427e3003a08f22cf803894075ac0297524e09e521fc1c15bc91741ce3dc15991a256fea264697066735822122080c2dbc5be1901c03db5b8055a32c1a8f1c15273a571719c5fcd4d195c52315764736f6c63430008180033","linkReferences":{}},"methodIdentifiers":{"lock()":"f83d08ba","locked()":"cf309012","owner()":"8da5cb5b","unlock()":"a69df4b5"},"id":0}